:04000000DFEF04F03A
:10080000002073656C6563742031206F72203200A4
:100810004C45445F4F4646004C45445F4F4E0000F8
:10082000000E066E04AE06D0036C041ED8B0042A77
:10083000010E066E02AE06D0016C021ED8B0022A6E
:10084000010E061A000E086E000E076E035004100B
:10085000D8B41CD0010E056E04D0D89003360436EF
:10086000052A04AEFAD7D890073608360350015C43
:1008700004500258D8A005D00350015E0450025A1B
:100880000780D89004320332052EEDD70650D8B435
:1008900004D0076C081ED8B0082A07C001F008C0B1
:1008A00002F0120009C001F00AC002F0000E046E4E
:1008B0000A0E036E10EC04F002BE2AD0025004E1CE
:1008C000020E015CD8A024D0000E0D6E000E0C6E3E
:1008D0000AD01A0E0B6EF80EE82EFED70B2EFCD7A0
:1008E00000D00C4A0D2A09C001F00AC002F0000E27
:1008F000046E0A0E036E10EC04F001500C5C0D50F7
:10090000800A0B6E0250800A0B58D8B01200E1D753
:10091000030E0B6E980EE82EFED70B2EFCD712009E
:10092000F0EC04F08B94000E0A6E320E096E52EC5D
:1009300004F0ECEC04F00E6E310E0E18D8A408D0C2
:100940008B94180E026E080E036EC1EC04F012D0E8
:10095000320E0E18D8A408D08B84100E026E080E2A
:10096000036EC1EC04F006D0010E026E080E036E99
:10097000C1EC04F0000E0A6E640E096E52EC04F035
:10098000D8D70AD002C0F6FF03C0F7FF0800F55021
:10099000E6EC04F0024A032A02C0F6FF03C0F7FFA8
:1009A0000800F5500009D8B41200ECD7949C948E3E
:1009B0000C0EAF6E200EAC6E900EAB6E1200000EE1
:1009C000F86E080EF76E000190EF04F0016E9EA81D
:1009D000FED701C0ADFF12009EAAFED7AE50120096
:0809E000D6EC04F0949412001F
:020000040020DA
:08000000FFFFFFFFFFFFFFFF00
:020000040030CA
:0E00000000081F1EFF8385FF0FC00FE00F409A
:00000001FF
